:020000040800F2
:100000000000022099080008E9070008F507000829
:10001000FD070008050800080D08000800000000A2
:1000200000000000000000000000000015080008AB
:100030002308000800000000310800083F080008FD
:10004000E9080008E9080008E9080008E9080008CC
:10005000E9080008E9080008E9080008E9080008BC
:10006000E9080008E9080008E9080008E9080008AC
:10007000E9080008E9080008E9080008E90800089C
:10008000E9080008E9080008E9080008E90800088C
:10009000E9080008E9080008E9080008E90800087C
:1000A000E90800084D080008E9080008E908000808
:1000B000E9080008E9080008E9080008E90800085C
:1000C000E9080008E9080008E9080008E90800084C
:1000D000E9080008E9080008E9080008E90800083C
:1000E000E9080008E9080008E9080008E90800082C
:1000F000E9080008E9080008E9080008E90800081C
:10010000E9080008E9080008E9080008E90800080B
:10011000E9080008E9080008E9080008E9080008FB
:10012000E9080008E9080008E9080008E9080008EB
:10013000E90800080000000000000000E9080008CD
:10014000E9080008E9080008E90800086108000853
:10015000E9080008E9080008E9080008E9080008BB
:10016000E9080008E9080008E9080008E9080008AB
:10017000E9080008E908000800000000000000008D
:08018000E9080008E908000885
:1001880010B5054C237833B9044B13B10448AFF3C9
:1001980000800123237010BD4C01002000000000E6
:1001A800507C000808B5034B1BB103490348AFF363
:1001B800008008BD0000000050010020507C0008AD
:1001C80053B94AB9002908BF00281CBF4FF0FF31B6
:1001D8004FF0FF3000F088B9ADF1080C6DE904CE9E
:1001E80000F006F8DDF804E0DDE9022304B070470A
:1001F8002DE9F047089D8E4604468846002B4AD1D3
:100208008A42174662D9B2FA82F64EB1C6F1200385
:1002180001FA06F820FA03F3B74043EA0808B440A5
:100228004FEA174E1FFA87FCB8FBFEF1230C0EFBB2
:10023800118843EA084301FB0CF29A4209D9FB18DA
:1002480001F1FF3080F0EA809A4240F2E7800239FB
:100258003B449A1AA3B2B2FBFEF00EFB102243EA0B
:10026800024300FB0CFC9C4509D9FB1800F1FF3246
:1002780080F0D6809C4540F2D3803B44023840EA67
:100288000140A3EB0C0300211DB1F3400022C5E996
:100298000032BDE8F0878B4205D90DB1C5E90001F0
:1002A80000210846F5E7B3FA83F1002946D17345E2
:1002B80002D3824200F20581841A6EEB0302012008
:1002C8009046002DE5D0C5E90048E2E7002A00F095
:1002D8009080B2FA82F6002E40F0A4808A1A030CAD
:1002E8004FEA174E80B2BCB20121B2FBFEFC0EFBF6
:1002F8001C2243EA024304FB0CF29A4207D9FB187A
:100308000CF1FF3802D29A4200F2E080C4469B1AF0
:10031800B3FBFEF20EFB123340EA034302FB04F484
:100328009C4207D9FB1802F1FF3002D29C4200F22E
:10033800CA8002461B1B42EA0C40A5E7C1F1200611
:100348008B4022FA06F71F430EFA01F420FA06F34F
:100358002EFA06FE4FEA1749234300FA01F81FFA5E
:1003680087FCBEFBF9F01C0C09FB10EE44EA0E44B6
:1003780000FB0CFEA64502FA01F209D93C1900F16E
:10038800FF3A80F09C80A64540F2998002383C44B0
:10039800A4EB0E041FFA83FEB4FBF9F309FB134424
:1003A8004EEA044403FB0CFCA44508D93C1903F1AC
:1003B800FF3E80F08280A4457FD9023B3C4443EA5B
:1003C8000040A4EB0C04A0FB02EC64457346E14634
:1003D80062D35FD05DB1B8EB030264EB090404FAA1
:1003E80006F622FA01F31E43CC40C5E90064002159
:1003F8004FE7B1FBF2FC010C41EA0E4180B240EA42
:1004080001423B4638463C46B846BE462026B1FB2C
:10041800F7F1A2EB080241EA0C4166E7014618E74A
:1004280010462CE7C6F120022EFA02F3B740B1407D
:1004380020FA02F24FEA174E0A43B3FBFEF8BCB2A9
:100448000EFB1833110C41EA034108FB04F9B040D4
:1004580089454FEA104380B23ED9791808F1FF3C2C
:1004680001D289451FD8A1EB0901B1FBFEF909FBAF
:1004780004F80EFB191192B242EA0142424529D210
:10048800BA1809F1FF31C4D24245C2D2A9F102011A
:100498003A44BEE7F0459DD2BEEB02036CEB070C75
:1004A8000138E14696E7A7EB09094944A8F1020C8F
:1004B800B1FBFEF909FB04F8DBE773467FE750461A
:1004C80066E70846FDE63B44023A33E7ACF1020C26
:1004D8003B441CE749469CE7A1EB0901C446B1FB34
:1004E800FEF909FB04F8C4E7704700BF80B582B085
:1004F80000AF78600B467B807B881946786806F0E9
:100508000BFF00BF0837BD4680BD80B483B000AF85
:100518000346FB7100BF0C37BD465DF8047B70478E
:1005280080B582B000AF7860034804F0D7FD00BF03
:100538000837BD4680BD00BF2000002080B500AF51
:1005480000F06AFA00F012F800F0CCF806F01CFE91
:1005580000F078F8034804F069FC034802F0D8FC7E
:1005680000BFFDE7200000206802002080B594B09D
:1005780000AF07F1200330220021184607F02AFBBC
:1005880007F10C0300221A605A609A60DA601A6157
:100598000023BB60294B1B6C284A43F0805313642B
:1005A800264B1B6C03F08053BB60BB6800237B6049
:1005B800234B1B68224A43F480431360204B1B687B
:1005C80003F480437B607B6801233B624FF48033F4
:1005D8007B620223BB634FF48003FB6304233B6409
:1005E800A8237B640223BB640723FB6407F1200371
:1005F800184601F0A7FF0346002B01D000F09AF837
:100608000F23FB6002233B6100237B614FF4A0535F
:10061800BB614FF48053FB6107F10C0305211846B9
:1006280002F008FA0346002B01D000F083F802F02C
:10063800E7FA00BF5037BD4680BD00BF0038024012
:100648000070004080B586B000AF07F108030022B3
:100658001A605A609A60DA603B4600221A605A6053
:100668001E4B1F4A1A601D4B53225A601B4B002217
:100678009A601A4B4FF47A72DA60184B00221A61AA
:10068800164B00225A61154B00229A61134802F05A
:10069800F0FB0346002B01D000F04CF84FF48053D8
:1006A800BB6007F1080319460C4802F091FD0346A8
:1006B800002B01D000F03EF800233B6000237B6054
:1006C8003B461946054802F0B9FF0346002B01D006
:1006D80000F030F800BF1837BD4680BD6802002022
:1006E8000000014080B483B000AF00237B60104B52
:1006F8001B6B0F4A43F0800313630D4B1B6B03F016
:1007080080037B607B6800233B60094B1B6B084AB6
:1007180043F001031363064B1B6B03F001033B60BB
:100728003B6800BF0C37BD465DF8047B704700BFCF
:100738000038024080B400AF72B600BF00BFFDE7CA
:1007480080B483B000AF00237B60104B5B6C0F4A12
:1007580043F4804353640D4B5B6C03F480437B602C
:100768007B6800233B60094B1B6C084A43F08053AD
:100778001364064B1B6C03F080533B603B6800BF5F
:100788000C37BD465DF8047B704700BF0038024057
:1007980080B584B000AF78607B681B680E4A9342CE
:1007A80015D10023FB600D4B5B6C0C4A43F0010331
:1007B80053640A4B5B6C03F00103FB60FB68002287
:1007C8000021192000F099FA192000F0B2FA00BFB0
:1007D8001037BD4680BD00BF000001400038024010
:1007E80080B500AF02F02AFB00BFFDE780B400AF80
:1007F80000BFFDE780B400AF00BFFDE780B400AFE5
:1008080000BFFDE780B400AF00BFFDE780B400AFD4
:1008180000BFBD465DF8047B704780B400AF00BFE1
:10082800BD465DF8047B704780B400AF00BFBD468D
:100838005DF8047B704780B500AF00F03FF900BF5A
:1008480080BD000080B500AF024802F0D1FB00BFB8
:1008580080BD00BF6802002080B500AF024800F0EC
:1008680063FD00BF80BD00BFD41D002080B400AF71
:10087800064BD3F88830054A43F47003C2F8883031
:1008880000BFBD465DF8047B704700BF00ED00E087
:10089800DFF834D0FFF7EAFF0C480D490D4A002372
:1008A80002E0D458C4500433C4188C42F9D30A4A1D
:1008B8000A4C002301E013600432A242FBD307F084
:1008C80091F9FFF73BFE704700000220000000206E
:1008D8004C010020D07C00084C010020D8240020C6
:1008E800FEE780B483B000AF78607B684FF6FF7294
:1008F8001A817B68B3F908207B681A807B6800221C
:100908005A817B68B3F90A207B685A807B68002289
:100918009A8000BF0C37BD465DF8047B704780B4F1
:1009280083B000AF78607B689B88002B0CBF0123E5
:100938000023DBB25BB218460C37BD465DF8047B7A
:10094800704780B483B000AF78607B68B3F900303B
:1009580001337A68D28893FBF2F101FB02F29B1A09
:100968001AB27B681A807B68B3F900207B681A8109
:100978007B689A887B68DB889A420ED17B68B3F9DA
:10098800023001337A68D28893FBF2F101FB02F25C
:100998009B1A1AB27B685A8005E07B689B880133F2
:1009A8009AB27B689A807B68B3F9083018460C378E
:1009B800BD465DF8047B704780B582B000AF7860B3
:1009C8007868FFF7ACFF0346002B19D17B68B3F9B1
:1009D80002207B685A817B689B88013B9AB27B68BE
:1009E8009A807B68B3F9023001337A68D28893FB26
:1009F800F2F101FB02F29B1A1AB27B685A8003E0FB
:100A08007B684FF6FF725A817B68B3F90A30184643
:100A18000837BD4680BD000080B500AF0E4B1B688F
:100A28000D4A43F4007313600B4B1B680A4A43F4E6
:100A380080631360084B1B68074A43F48073136094
:100A4800032000F04FF90F2000F008F8FFF778FEB8
:100A58000023184680BD00BF003C024080B582B02C
:100A680000AF7860124B1A68124B1B7819464FF486
:100A78007A73B3FBF1F3B2FBF3F3184600F067F9AE
:100A88000346002B01D001230EE07B680F2B0AD808
:100A9800002279684FF0FF3000F02FF9064A7B6892
:100AA8001360002300E0012318460837BD4680BDC7
:100AB80050000020580000205400002080B400AFEF
:100AC800064B1B781A46064B1B681344044A1360EE
:100AD80000BFBD465DF8047B704700BF580000208A
:100AE800F008002080B400AF034B1B681846BD46D1
:100AF8005DF8047B704700BFF008002080B584B023
:100B080000AF7860FFF7EEFFB8607B68FB60FB68BA
:100B1800B3F1FF3F05D00A4B1B781A46FB68134414
:100B2800FB6000BFFFF7DEFF0246BB68D31AFA6816
:100B38009A42F7D800BF00BF1037BD4680BD00BF3E
:100B48005800002080B485B000AF78607B6803F05F
:100B58000703FB600C4BDB68BB60BA684FF6FF030A
:100B68001340BB60FB681A02BB68134343F0BF63C2
:100B780043F40033BB60044ABB68D36000BF14373A
:100B8800BD465DF8047B704700ED00E080B400AF1F
:100B9800044BDB681B0A03F007031846BD465DF8E3
:100BA800047B704700ED00E080B483B000AF0346DB
:100BB800FB7197F90730002B0BDBFB7903F01F0261
:100BC800074997F907305B09012000FA02F241F85A
:100BD800232000BF0C37BD465DF8047B704700BF7B
:100BE80000E100E080B483B000AF03463960FB71D8
:100BF80097F90730002B0ADB3B68DAB20C4997F902
:100C080007301201D2B20B4483F800230AE03B6894
:100C1800DAB20849FB7903F00F03043B1201D2B2A0
:100C28000B441A7600BF0C37BD465DF8047B70474D
:100C380000E100E000ED00E080B489B000AFF860AA
:100C4800B9607A60FB6803F00703FB61FB69C3F1D5
:100C58000703042B28BF0423BB61FB690433062B5D
:100C680002D9FB69033B00E000237B614FF0FF32B0
:100C7800BB6902FA03F3DA43BB681A407B699A40FE
:100C88004FF0FF317B6901FA03F3D9437B680B40CE
:100C9800134318462437BD465DF8047B70470000AF
:100CA80080B582B000AF78607B68013BB3F1807F8C
:100CB80001D301230FE00A4A7B68013B53600F21EF
:100CC8004FF0FF30FFF78EFF054B00229A60044B70
:100CD80007221A60002318460837BD4680BD00BFAA
:100CE80010E000E080B582B000AF78607868FFF768
:100CF80029FF00BF0837BD4680BD80B586B000AF6C
:100D08000346B9607A60FB7300237B61FFF73EFFFF
:100D180078617A68B9687869FFF78EFF024697F9B3
:100D28000F3011461846FFF75DFF00BF1837BD4664
:100D380080BD80B582B000AF0346FB7197F90730DC
:100D48001846FFF731FF00BF0837BD4680BD80B5A4
:100D580082B000AF78607868FFF7A2FF03461846B4
:100D68000837BD4680BD000080B489B000AF786008
:100D7800396000237B6100233B610023BB610023B2
:100D8800FB616BE10122FB6902FA03F37B613B68BB
:100D98001B687A6913403B613A697B699A4240F063
:100DA8005A813B685B6803F00303012B05D03B685D
:100DB8005B6803F00303022B30D17B689B68BB613F
:100DC800FB695B00032202FA03F3DB43BA691340B1
:100DD800BB613B68DA68FB695B0002FA03F3BA6936
:100DE8001343BB617B68BA699A607B685B68BB61C7
:100DF8000122FB6902FA03F3DB43BA691340BB61C2
:100E08003B685B681B0903F00102FB6902FA03F304
:100E1800BA691343BB617B68BA695A603B685B680F
:100E280003F00303032B17D07B68DB68BB61FB6906
:100E38005B00032202FA03F3DB43BA691340BB6188
:100E48003B689A68FB695B0002FA03F3BA691343CB
:100E5800BB617B68BA69DA603B685B6803F00303CF
:100E6800022B23D1FB69DA087B68083253F8223059
:100E7800BB61FB6903F007039B000F2202FA03F32F
:100E8800DB43BA691340BB613B681A69FB6903F02D
:100E980007039B0002FA03F3BA691343BB61FB69BA
:100EA800DA087B680832B96943F822107B681B6846
:100EB800BB61FB695B00032202FA03F3DB43BA69F7
:100EC8001340BB613B685B6803F00302FB695B008E
:100ED80002FA03F3BA691343BB617B68BA691A6003
:100EE8003B685B6803F44033002B00F0B4800023B8
:100EF800FB60604B5B6C5F4A43F4804353645D4B1B
:100F08005B6C03F48043FB60FB685B4AFB699B08EE
:100F1800023352F82330BB61FB6903F003039B00E3
:100F28000F2202FA03F3DB43BA691340BB617B6803
:100F3800524A93422BD07B68514A934225D07B6812
:100F4800504A93421FD07B684F4A934219D07B681E
:100F58004E4A934213D07B684D4A93420DD07B682A
:100F68004C4A934207D07B684B4A934201D10723EE
:100F78000EE008230CE006230AE0052308E004231A
:100F880006E0032304E0022302E0012300E000233B
:100F9800FA6902F0030292009340BA691343BB61F5
:100FA8003549FB699B080233BA6941F823203B4B5A
:100FB8009B68BB613B69DB43BA691340BB613B6813
:100FC8005B6803F48013002B03D0BA693B691343B1
:100FD800BB61324ABB699360304BDB68BB613B69DC
:100FE800DB43BA691340BB613B685B6803F40013D9
:100FF800002B03D0BA693B691343BB61274ABB691D
:10100800D360264B5B68BB613B69DB43BA6913401D
:10101800BB613B685B6803F40033002B03D0BA69FB
:101028003B691343BB611D4ABB6953601B4B1B687B
:10103800BB613B69DB43BA691340BB613B685B68D2
:1010480003F48033002B03D0BA693B691343BB61B7
:10105800124ABB691360FB690133FB61FB690F2B03
:101068007FF690AE00BF00BF2437BD465DF8047B15
:10107800704700BF003802400038014000000240BD
:101088000004024000080240000C02400010024028
:101098000014024000180240001C0240003C0140BD
:1010A80080B586B002AF78607B68002B01D1012340
:1010B80001E17B681B68BB607B6893F89534DBB201
:1010C800002B06D17B68002283F89424786806F008
:1010D8006DFA7B68032283F89524BB68B3F1A04FAF
:1010E80002D17B6800229A717B681B68184602F05F
:1010F8004CFC7B6818687B681A7C8DF800200433E8
:101108000ECB02F02BFB0346002B05D07B68022296
:1011180083F895240123CEE07B681B6800211846DC
:1011280002F044FC0346002B05D07B68022283F8BA
:1011380095240123BFE00023FB734AE0FA7B79681A
:101148001346DB0013449B000B44153301221A702D
:10115800FA7B79681346DB0013449B000B44143375
:10116800FA7B1A70FA7BFB7B98B279681346DB002E
:1011780013449B000B442E3302461A80FA7B79688D
:101188001346DB0013449B000B44183300221A70EB
:10119800FA7B79681346DB0013449B000B441C332D
:1011A80000221A60FA7B79681346DB0013449B001F
:1011B8000B44203300221A60FA7B79681346DB005F
:1011C80013449B000B44243300221A60FB7B013339
:1011D800FB737B681B79FA7B9A42AFD30023FB73BE
:1011E80044E0FA7B79681346DB0013449B000B4408
:1011F80003F2552300221A70FA7B79681346DB0044
:1012080013449B000B4403F51573FA7B1A70FA7BA1
:1012180079681346DB0013449B000B4403F51673EF
:1012280000221A70FA7B79681346DB0013449B008E
:101238000B4403F5177300221A60FA7B796813468A
:10124800DB0013449B000B4403F5187300221A605B
:10125800FA7B79681346DB0013449B000B4403F5C3
:10126800197300221A60FB7B0133FB737B681B79BF
:10127800FA7B9A42B5D37B6818687B681A7C8DF82C
:10128800002004330ECB02F0DDFB0346002B05D013
:101298007B68022283F8952401230CE07B680022F6
:1012A8005A747B68012283F895247B681B6818466A
:1012B80003F027FC002318461037BD4680BD80B5D3
:1012C80084B000AF78607B681B68FB607B6893F82C
:1012D8009434012B01D1022322E07B68012283F898
:1012E8009424FB68DB6803F04003002B09D07B687B
:1012F8005B7B012B05D1FB689B6B43F48032FB6859
:101308009A637B681B68184602F02EFB7B681B6893
:10131800184603F0D5FB7B68002283F89424002349
:1013280018461037BD4680BD90B58DB000AF7860C7
:101338007B681B683B623B6AFB617B681B681846DD
:1013480003F093FC0346002B40F08C847B681B68F9
:10135800184603F0F7FB0346002B00F08284FB6974
:1013680003F500639B681B0AC3F30D027B68C3F88F
:10137800D4247B681B68184603F0E4FB034603F09B
:101388000203022B07D17B681B685A697B681B68BC
:1013980002F002025A617B681B68184603F0D2FB10
:1013A800034603F01003102B61D17B681B689A6910
:1013B8007B681B6822F010029A613B6A1B6ABB615A
:1013C800BB6903F00F021346DB0013449B0003F5CF
:1013D80014737A68134404337B61BB6903F4F01314
:1013E800B3F5802F24D1BA6947F6F0731340002B68
:1013F80035D07B69D968BB691B099BB2C3F30A0363
:101408009BB21A46386A03F009FA7B69DA68BB6945
:101418001B09C3F30A031A447B69DA607B695A69BA
:10142800BB691B09C3F30A031A447B695A6116E0B6
:10143800BB6903F4F013B3F5402F10D17B6803F2B6
:101448009C4308221946386A03F0E8F97B695A690F
:10145800BB691B09C3F30A031A447B695A617B6899
:101468001B689A697B681B6842F010029A617B6866
:101478001B68184603F066FB034603F40023B3F524
:10148800002F40F0A78000237B627B681B6818460A
:1014980003F06BFBB86299E0BB6A03F00103002B11
:1014A80000F08E807B681B687A6AD2B211461846B3
:1014B80003F08FFB38613B6903F00103002B0CD06C
:1014C8007B6A5A01FB69134403F530631A4601230A
:1014D8009360796A786800F0A3FE3B6903F008031B
:1014E800002B0CD07B6A5A01FB69134403F5306367
:1014F8001A4608239360796A786800F079FF3B6997
:1015080003F01003002B08D07B6A5A01FB691344CF
:1015180003F530631A46102393603B6903F0020316
:10152800002B30D03B6A5B6903F08003802B09D124
:10153800FB6903F500635B68FA6902F5006243F42E
:10154800806353607A6A1346DB0013449B0003F5FB
:1015580014737A68134404337B617B69DB78012B4D
:1015680008D17B690022DA707B6ADBB21946786899
:1015780006F022F97B6A5A01FB69134403F53063CC
:101588001A46022393603B6903F02003002B08D01E
:101598007B6A5A01FB69134403F530631A4620231A
:1015A80093603B6903F40053002B09D07B6A5A010E
:1015B800FB69134403F530631A464FF400539360F4
:1015C8007B6A01337B62BB6A5B08BB62BB6A002B28
:1015D8007FF462AF7B681B68184603F0B3FA0346D2
:1015E80003F48023B3F5802F40F0DB807B681B6811
:1015F800184603F0D4FAB86200237B62CDE0BB6AD8
:1016080003F00103002B00F0C2807B681B687A6A34
:10161800D2B21146184603F0FAFA38613B6903F072
:101628000103002B57D07B6A03F00F03012202FA53
:1016380003F3FB60FB6903F500635A6BFB68DB434C
:10164800F96901F5006113404B637B6A5A01FB6934
:10165800134403F510631A46012393607B689B7952
:10166800012B32D179687A6A1346DB0013449B0058
:101678000B442033196878687A6A1346DB001344F0
:101688009B0003441C331B68194478687A6A134624
:10169800DB0013449B000344203319607B6A002B52
:1016A80013D179687A6A1346DB0013449B000B4414
:1016B80024331B68002B08D17B6818687B6803F209
:1016C8009C431A46012103F001FB7B6ADBB21946F1
:1016D800786805F0ECFF3B6903F00803002B08D09D
:1016E8007B6A5A01FB69134403F510631A46082301
:1016F80093603B6903F01003002B08D07B6A5A0102
:10170800FB69134403F510631A46102393603B6981
:1017180003F04003002B08D07B6A5A01FB6913448D
:1017280003F510631A46402393603B6903F00203F4
:10173800002B23D0796A386A02F0E8FA7A6A1346ED
:10174800DB0013449B0010337A68134404337B6135
:101758007B69DB78012B08D17B690022DA707B6A10
:10176800DBB21946786806F039F87B6A5A01FB69DA
:10177800134403F510631A46022393603B6903F090
:101788008003002B03D0796A786800F0BDFC7B6A7F
:1017980001337B62BB6A5B08BB62BB6A002B7FF4C8
:1017A8002EAF7B681B68184603F0CCF9034603F09C
:1017B8000043B3F1004F22D1FB6903F500635B6876
:1017C800FA6902F5006223F0010353607B6893F81D
:1017D800CC34012B08D17B68002283F8CC2400216B
:1017E800786800F0A3FE02E0786805F0D7FF7B6810
:1017F8001B685A697B681B6802F000425A617B6863
:101808001B68184603F09EF9034603F40063B3F51A
:10181800006F12D1FB6903F500639B6803F00103B5
:10182800012B02D1786805F093FF7B681B685A6921
:101838007B681B6802F400625A617B681B68184663
:1018480003F080F9034603F48053B3F5805F40F05A
:10185800B780FB6903F500635B68FA6902F500620B
:1018680023F0010353607B681B681021184602F0BF
:101878004DFA0023FB6246E0FB6A5A01FB691344F8
:1018880003F510631A464FF67F339360FB6A5A01DB
:10189800FB69134403F510631B68FA6A5101FA697E
:1018A8000A4402F5106223F400131360FB6A5A011C
:1018B800FB69134403F530631A464FF67F33936090
:1018C800FB6A5A01FB69134403F530631B68FA6A23
:1018D8005101FA690A4402F5306223F400131360D7
:1018E800FB6A5A01FB69134403F530631B68FA6A03
:1018F8005101FA690A4402F5306243F0006313604B
:10190800FB6A0133FB627B681B791A46FB6A9342C8
:10191800B2D3FB6903F50063DB69FA6902F500627B
:1019280043F00113D3617B68DB7B002B16D0FB6986
:1019380003F50063D3F88430FA6902F5006243F0D6
:101948000B03C2F88430FB6903F500635B6CFA692A
:1019580002F5006243F00B03536415E0FB6903F5DD
:1019680000635B69FA6902F5006243F4005343F0CF
:101978002B035361FB6903F500631B69FA6902F5E0
:10198800006243F00B031361FB6903F500631B68F6
:10199800FA6902F5006223F4FE6313607B68186835
:1019A8007B6899797B6803F29C431A4603F08EF9A9
:1019B8007B681B685A697B681B6802F480525A610D
:1019C8007B681B68184603F0BDF8034603F4005310
:1019D800B3F5005F23D17B681B68184603F053F901
:1019E8007B681B68184602F00AFA03461A467B68A9
:1019F800DA717B681C6801F015FA01467B68DB79AF
:101A08001A46204601F00EFF786805F078FE7B68DC
:101A18001B685A697B681B6802F400525A617B682C
:101A28001B68184603F08EF8034603F00803082BDA
:101A38000AD1786805F055FE7B681B685A697B688F
:101A48001B6802F008025A617B681B68184603F09D
:101A580079F8034603F08003802B23D13B6A9B6906
:101A680023F080023B6A9A6101237B6214E0796863
:101A78007A6A1346DB0013449B000B4403F2572396
:101A88001B78012B05D17B6ADBB21946786800F018
:101A98000AFB7B6A01337B627B681B791A467B6A87
:101AA8009342E4D37B681B68184603F04BF803465F
:101AB80003F48013B3F5801F3CD101237B622BE034
:101AC8007B6A5A01FB69134403F510631B68BB6109
:101AD80079687A6A1346DB0013449B000B44183379
:101AE8001B78012B15D1BB69002B12DA79687A6A49
:101AF8001346DB0013449B000B44173301221A7072
:101B08007B6ADBB263F07F03DBB21946786800F0CA
:101B1800CAFA7B6A01337B627B681B791A467B6A47
:101B28009342CDD37B681B685A697B681B6802F4B3
:101B380080125A617B681B68184603F003F8034655
:101B480003F40013B3F5001F56D101237B6245E06F
:101B58007B6A5A01FB69134403F530631B68BB6158
:101B680079687A6A1346DB0013449B000B4403F53B
:101B780016731B78012B2ED1BB69002B2BDABB699E
:101B880003F480327B68D3F8D43403F001039A421B
:101B980021D179687A6A1346DB0013449B000B4411
:101BA80003F2572301221A703B6A9B6943F08002B3
:101BB8003B6A9A613B6A5B6903F08003002B0AD198
:101BC800FB6903F500635B68FA6902F5006243F498
:101BD8000073536008E07B6A01337B627B681B7982
:101BE8001A467B6A9342B3D37B681B685A697B6841
:101BF8001B6802F400125A617B681B68184602F0E1
:101C0800A1FF034603F08043B3F1804F0AD17868FF
:101C180005F0F6FD7B681B685A697B681B6802F053
:101C280080425A617B681B68184602F08BFF0346A6
:101C380003F00403042B15D17B681B685B68BB6148
:101C4800BB6903F00403002B02D0786805F0E6FDB9
:101C58007B681B6859687B681B68BA690A435A60C5
:101C680000E000BF3437BD4690BD80B582B000AFFC
:101C780078600B46FB707B6893F89434012B01D194
:101C8800022312E07B68012283F894247B68FA78A7
:101C98005A747B681B68FA781146184602F0EAFE07
:101CA8007B68002283F89424002318460837BD4631
:101CB80080BD80B584B000AF7860084611461A46EA
:101CC8000346FB700B463B801346BB700023FB7238
:101CD80097F90330002B0FDAFB7803F00F02134655
:101CE800DB0013449B0010337A6813440433FB6011
:101CF800FB6801225A700FE0FB7803F00F021346CD
:101D0800DB0013449B0003F514737A68134404330F
:101D1800FB60FB6800225A70FB7803F00F03DAB20D
:101D2800FB681A703B88C3F30A02FB689A60FB6879
:101D3800BA781A71FB685B78002B04D0FB681B78B3
:101D48001A46FB685A83BB78022B02D1FB68002233
:101D58005A717B6893F89434012B01D102230EE069
:101D68007B68012283F894247B681B68F96818460D
:101D780002F06AF87B68002283F89424FB7A1846FC
:101D88001037BD4680BD80B584B000AF78600B4683
:101D9800FB7097F90330002B0FDAFB7803F00F0282
:101DA8001346DB0013449B0010337A681344043352
:101DB800FB60FB6801225A700FE0FB7803F00F020A
:101DC8001346DB0013449B0003F514737A6813442D
:101DD8000433FB60FB6800225A70FB7803F00F03A2
:101DE800DAB2FB681A707B6893F89434012B01D13E
:101DF80002230EE07B68012283F894247B681B6829
:101E0800F968184602F0A8F87B68002283F8942441
:101E1800002318461037BD4680BD80B586B000AF98
:101E2800F8607A603B600B46FB72FB7A03F00F02A6
:101E38001346DB0013449B0003F51473FA6813443C
:101E480004337B617B697A68DA607B693A681A6176
:101E58007B6900225A617B6900225A70FB7A03F081
:101E68000F03DAB27B691A70FB689B79012B02D1E8
:101E78007A687B69DA61FB681868FB689B791A469F
:101E8800796902F045F9002318461837BD4680BD28
:101E980080B483B000AF78600B46FB70FB7803F02A
:101EA8000F0279681346DB0013449B000B4403F5CB
:101EB8001A731B6818460C37BD465DF8047B7047DB
:101EC80080B586B000AFF8607A603B600B46FB7265
:101ED800FB7A03F00F021346DB0013449B00103318
:101EE800FA68134404337B617B697A68DA607B693A
:101EF8003A681A617B6900225A617B6901225A702B
:101F0800FB7A03F00F03DAB27B691A70FB689B79DE
:101F1800012B02D17A687B69DA61FB681868FB6873
:101F28009B791A46796902F0F3F8002318461837A6
:101F3800BD4680BD80B584B000AF78600B46FB70AD
:101F4800FB7803F00F037A681279934201D90123D1
:101F58004FE097F90330002B0FDAFB7803F00F02FC
:101F68001346DB0013449B0010337A681344043390
:101F7800FB60FB6801225A700DE0FA781346DB001B
:101F880013449B0003F514737A6813440433FB600D
:101F9800FB6800225A70FB6801229A70FB7803F0F4
:101FA8000F03DAB2FB681A707B6893F89434012B3C
:101FB80001D102231DE07B68012283F894247B6809
:101FC8001B68F968184602F081FCFB7803F00F03E0
:101FD800002B09D17B6818687B6899797B6803F2C4
:101FE8009C431A4602F072FE7B68002283F8942410
:101FF800002318461037BD4680BD80B584B000AFB9
:1020080078600B46FB70FB7803F00F037A6812794F
:10201800934201D9012342E097F90330002B0FDAEC
:10202800FB7803F00F021346DB0013449B001033C8
:102038007A6813440433FB60FB6801225A700FE08E
:10204800FB7803F00F021346DB0013449B0003F5F3
:1020580014737A6813440433FB60FB6800225A70D7
:10206800FB6800229A70FB7803F00F03DAB2FB6872
:102078001A707B6893F89434012B01D102230EE087
:102088007B68012283F894247B681B68F9681846EA
:1020980002F08AFC7B68002283F894240023184607
:1020A8001037BD4680BD80B584B000AF78600B4660
:1020B800FB7097F90330002B0CDAFB7803F00F0262
:1020C8001346DB0013449B0010337A68134404332F
:1020D800FB600CE0FB7803F00F021346DB001344AF
:1020E8009B0003F514737A6813440433FB607B6820
:1020F8001B68F968184602F0A9FA0346FB72FB7AD6
:1021080018461037BD4680BD80B58AB002AF7860EA
:1021180039607B681B687B617B693B613A68134661
:10212800DB0013449B0010337A6813440433FB60CC
:10213800FB685A69FB681B699A4201D901236BE065
:10214800FB681A69FB685B69D31AFB61FB689B68CB
:10215800FA699A4202D9FB689B68FB61FB69033301
:102168009B08BB612AE0FB681A69FB685B69D31AA4
:10217800FB61FB689B68FA699A4202D9FB689B6815
:10218800FB61FB6903339B08BB61FB68D9683B684B
:10219800DAB2FB6998B27B689B7900930346786949
:1021A80002F0FEFAFB68DA68FB691A44FB68DA6039
:1021B800FB685A69FB691A44FB685A613B685A0113
:1021C8003B69134403F510639B699BB2BA699A4251
:1021D80009D8FB685A69FB681B699A4203D2FB68F5
:1021E8001B69002BBFD1FB681A69FB685B699A42BF
:1021F80011D83B6803F00F03012202FA03F3BB6016
:102208003B6903F500635A6BBB68DB43396901F529
:10221800006113404B63002318462037BD4680BD3C
:1022280080B588B000AF786039607B681B68FB6157
:10223800FB69BB61FB693C3304331B687B613B680A
:102248005A01BB69134403F530639B683B617B68A3
:102258009B79012B7BD13B6903F00803002B15D038
:102268007B69614A934240F2B9803B6903F40043B9
:10227800002B00F0B3803B685A01BB69134403F597
:1022880030631A464FF400439360A7E03B6903F0BC
:102298002003002B09D03B685A01BB69134403F59E
:1022A80030631A462023936098E03B6903F02803C3
:1022B800002B40F093807B694B4A93420FD93B69CE
:1022C80003F40043002B0AD03B685A01BB6913444E
:1022D80003F530631A464FF4004393607EE03A6892
:1022E8001346DB0013449B0003F514737A68134408
:1022F8000433FB60FB681A6A3B685901BB690B44ED
:1023080003F530631B69C3F31203D21AFB685A61E1
:102318003B68002B14D1FB681B69002B09D17B6833
:1023280018687B6803F29C431A46012102F0CEFC30
:1023380006E0FB68DA68FB685B691A44FB68DA60E8
:102348003B68DBB21946786805F096F946E07B6988
:10235800264A934224D13B6903F40043002B0AD058
:102368003B685A01BB69134403F530631A464FF4BE
:102378000043936032E03B6903F02003002B08D050
:102388003B685A01BB69134403F530631A4620239E
:1023980093603B68DBB21946786805F06DF91DE07B
:1023A8003B68002B14D179683A681346DB00134464
:1023B8009B000B4403F519731B68002B08D17B683D
:1023C80018687B6803F29C431A46002102F07EFCE1
:1023D8003B68DBB21946786805F04EF900231846C9
:1023E8002037BD4680BD00BF0A30544F0A31544FD4
:1023F80080B586B000AF786039607B681B687B6108
:102408007B693B617B693C3304331B68FB603B6839
:102418005A013B69134403F530639B68BB60FB6852
:10242800154A93420ED9BB6803F40043002B09D028
:102438003B685A013B69134403F530631A464FF46D
:1024480000439360786805F005F9FB680A4A9342EF
:102458000CD97B689B79012B08D17B6818687B684D
:1024680003F29C431A46012102F030FC002318466F
:102478001837BD4680BD00BF0A30544F80B485B0C0
:1024880000AF78600B46FB7013463B807B681B6887
:102498005B6ABB60FB78002B07D13B8819047B681B
:1024A8001B68BA680A439A6228E07B681B689B6AC3
:1024B8001B0CBA681344BB600023FB730DE07B68F8
:1024C8001A68FB7B40339B0013445B681B0CBA689B
:1024D8001344BB60FB7B0133FB73FA7BFB78013B46
:1024E8009A42ECD33B8818047B681968FB78013B57
:1024F800BA68024340339B000B445A6000231846D5
:102508001437BD465DF8047B704780B483B000AFD4
:1025180078600B467B807B681B687A885A62002348
:1025280018460C37BD465DF8047B704780B483B00D
:1025380000AF78600B46FB7000BF0C37BD465DF8F6
:10254800047B704780B586B000AF78607B68002B4D
:1025580001D1012367E27B681B6803F00103002BAC
:1025680075D0884B9B6803F00C03042B0CD0854B6B
:102578009B6803F00C03082B12D1824B5B6803F4B1
:102588008003B3F5800F0BD17E4B1B6803F4003337
:10259800002B5BD07B685B68002B57D1012342E29C
:1025A8007B685B68B3F5803F06D1764B1B68754A3C
:1025B80043F4803313601DE07B685B68B3F5A02F9C
:1025C8000CD1704B1B686F4A43F4802313606D4B2A
:1025D8001B686C4A43F4803313600BE0694B1B683B
:1025E800684A23F480331360664B1B68654A23F4FA
:1025F800802313607B685B68002B13D0FEF772FAA8
:10260800386108E0FEF76EFA02463B69D31A642B7C
:1026180001D9032307E25B4B1B6803F40033002B4B
:10262800F0D014E0FEF75EFA386108E0FEF75AFAD7
:1026380002463B69D31A642B01D90323F3E1514BBA
:102648001B6803F40033002BF0D100E000BF7B6867
:102658001B6803F00203002B63D04A4B9B6803F00E
:102668000C03002B0BD0474B9B6803F00C03082B83
:102678001CD1444B5B6803F48003002B16D1414BFB
:102688001B6803F00203002B05D07B68DB68012B75
:1026980001D00123C7E13B4B1B6823F0F8027B689C
:1026A8001B69DB00374913430B603AE07B68DB6842
:1026B800002B20D0344B01221A60FEF713FA386140
:1026C80008E0FEF70FFA02463B69D31A022B01D93C
:1026D8000323A8E12B4B1B6803F00203002BF0D067
:1026E800284B1B6823F0F8027B681B69DB0025492F
:1026F80013430B6015E0244B00221A60FEF7F2F931
:10270800386108E0FEF7EEF902463B69D31A022B5E
:1027180001D9032387E11B4B1B6803F00203002B3D
:10272800F0D17B681B6803F00803002B36D07B6868
:102738005B69002B16D0154B01221A60FEF7D2F9FF
:10274800386108E0FEF7CEF902463B69D31A022B3E
:1027580001D9032367E10B4B5B6F03F00203002BE6
:10276800F0D01BE0094B00221A60FEF7BBF9386174
:102778000EE0FEF7B7F902463B69D31A022B07D9D8
:10278800032350E10038024000004742800E4742D0
:10279800884B5B6F03F00203002BEAD17B681B6850
:1027A80003F00403002B00F097800023FB75814B96
:1027B8001B6C03F08053002B0FD10023BB607D4BB3
:1027C8001B6C7C4A43F0805313647A4B1B6C03F0F8
:1027D8008053BB60BB680123FB75774B1B6803F410
:1027E8008073002B18D1744B1B68734A43F48073B1
:1027F8001360FEF777F9386108E0FEF773F90246CF
:102808003B69D31A022B01D903230CE16A4B1B68DD
:1028180003F48073002BF0D07B689B68012B06D1F2
:10282800644B1B6F634A43F0010313671CE07B682A
:102838009B68052B0CD15F4B1B6F5E4A43F004036A
:1028480013675C4B1B6F5B4A43F0010313670BE094
:10285800584B1B6F574A23F001031367554B1B6FE7
:10286800544A23F0040313677B689B68002B15D038
:10287800FEF738F938610AE0FEF734F902463B6999
:10288800D31A41F28832934201D90323CBE0494B52
:102898001B6F03F00203002BEED014E0FEF722F9C1
:1028A80038610AE0FEF71EF902463B69D31A41F285
:1028B8008832934201D90323B5E03E4B1B6F03F0E6
:1028C8000203002BEED1FB7D012B05D1394B1B6C8C
:1028D800384A23F0805313647B689B69002B00F00F
:1028E800A180344B9B6803F00C03082B5CD07B68F9
:1028F8009B69022B41D1314B00221A60FEF7F2F896
:10290800386108E0FEF7EEF802463B69D31A022B5D
:1029180001D9032387E0274B1B6803F00073002BC2
:10292800F0D17B68DA697B681B6A1A437B685B6A4B
:102938009B011A437B689B6A5B08013B1B041A4393
:102948007B68DB6A1B061B4913434B601B4B012248
:102958001A60FEF7C7F8386108E0FEF7C3F80246C8
:102968003B69D31A022B01D903235CE0114B1B6886
:1029780003F00073002BF0D054E0104B00221A60D3
:10298800FEF7B0F8386108E0FEF7ACF802463B699C
:10299800D31A022B01D9032345E0064B1B6803F029
:1029A8000073002BF0D13DE07B689B69012B07D1B8
:1029B800012338E0003802400070004060004742C0
:1029C8001B4B5B68FB607B689B69012B28D0FB680D
:1029D80003F480027B68DB699A4221D1FB6803F02B
:1029E8003F027B681B6A9A421AD1FA6847F6C0739D
:1029F80013407A68526A9201934211D1FB6803F43A
:102A080040327B689B6A5B08013B1B049A4207D1F2
:102A1800FB6803F070627B68DB6A1B069A4201D090
:102A2800012300E0002318461837BD4680BD00BFCB
:102A38000038024080B584B000AF786039607B68A8
:102A4800002B01D10123CCE0684B1B6803F007037E
:102A58003A689A420CD9654B3A68D2B21A70634BFD
:102A68001B6803F007033A689A4201D00123B8E0D3
:102A78007B681B6803F00203002B20D07B681B686F
:102A880003F00403002B05D0594B9B68584A43F4C4
:102A9800E05393607B681B6803F00803002B05D0A4
:102AA800534B9B68524A43F460439360504B9B6876
:102AB80023F0F0027B689B684D4913438B607B6869
:102AC8001B6803F00103002B44D07B685B68012B73
:102AD80007D1474B1B6803F40033002B19D101239E
:102AE8007FE07B685B68022B03D07B685B68032B05
:102AF80007D13F4B1B6803F00073002B09D101235A
:102B08006FE03B4B1B6803F00203002B01D101234C
:102B180067E0374B9B6823F003027B685B683449A6
:102B280013438B60FDF7DEFFF8600AE0FDF7DAFF7C
:102B38000246FB68D31A41F28832934201D9032333
:102B48004FE02B4B9B6803F00C027B685B689B0093
:102B58009A42EBD1254B1B6803F007033A689A4267
:102B68000CD2224B3A68D2B21A70204B1B6803F081
:102B780007033A689A4201D0012332E07B681B6858
:102B880003F00403002B08D0194B9B6823F4E05290
:102B98007B68DB68164913438B607B681B6803F00E
:102BA8000803002B09D0124B9B6823F460427B6812
:102BB8001B69DB000E4913438B6000F02DF80246B9
:102BC8000B4B9B681B0903F00F030A49CB5C22FAE5
:102BD80003F3094A1360094B1B681846FDF73EFFCB
:102BE800002318461037BD4680BD00BF003C024098
:102BF80000380240B07C000850000020540000203B
:102C080080B400AF034B01221A6000BFBD465DF8D7
:102C1800047B70474C0047422DE9B04F94B000AF99
:102C280000237B640023FB6400233B640023BB6414
:102C3800794B9B6803F00C03082B0DD0082B00F28E
:102C4800E180002B02D0042B03D0DBE0734BBB6484
:102C5800DBE0734BBB64D8E06F4B5B6803F03F036A
:102C68007B646D4B5B6803F48003002B63D06A4B75
:102C78005B689B090022BB63FA63BB6BC3F3080361
:102C88003B6300237B63D7E90C4522462B464FF074
:102C980000004FF00001590141EAD261500102469B
:102CA8000B462146511A3961294663EB01037B61C2
:102CB8004FF000024FF00003D7E904AB59468B01EF
:102CC800514643EA916351468A015146B2EB0108E5
:102CD800594663EB01094FF000024FF000034FEA39
:102CE800C90343EA58734FEAC802904699462346F7
:102CF80018EB0303BB602B4649EB0303FB604FF063
:102D080000024FF00003D7E9024529464B0221464D
:102D180043EAD15321464A02104619467B6C0022E9
:102D2800BB62FA62D7E90A23FDF74AFA02460B4664
:102D38001346FB6458E0384B5B689B090022184631
:102D48001146C0F308033B6200237B62D7E9088978
:102D580042464B464FF000004FF00001590141EA4E
:102D6800D261500102460B464146B2EB010A494680
:102D780063EB010B4FF000024FF000034FEA8B1397
:102D880043EA9A634FEA8A12B2EB0A0463EB0B0533
:102D98004FF000024FF00003EB0043EA5473E200E7
:102DA80014461D464346E3183B604B4645EB030378
:102DB8007B604FF000024FF00003D7E90045294639
:102DC8008B02214643EA915321468A02104619464E
:102DD8007B6C0022BB61FA61D7E90623FDF7F0F9A5
:102DE80002460B461346FB640B4B5B681B0C03F057
:102DF800030301335B003B64FA6C3B6CB2FBF3F3F7
:102E0800BB6402E0054BBB6400BFBB6C184650377F
:102E1800BD46BDE8B08F00BF003802400024F40072
:102E280000127A0080B400AF034B1B681846BD46F9
:102E38005DF8047B704700BF5000002080B500AFEC
:102E4800064BDB6803F08003802B04D100F00AF8FE
:102E5800034B80221A7000BF80BD00BF00380240BB
:102E68000E38024080B400AF00BFBD465DF8047B59
:102E7800704780B582B000AF78607B68002B01D1C5
:102E8800012341E07B6893F83D30DBB2002B06D18B
:102E98007B68002283F83C207868FDF779FC7B6822
:102EA800022283F83D207B681A687B680433194640
:102EB800104600F07DFA7B68012283F846207B6883
:102EC800012283F83E207B68012283F83F207B683B
:102ED800012283F840207B68012283F841207B6827
:102EE800012283F842207B68012283F843207B6813
:102EF800012283F844207B68012283F845207B68FF
:102F0800012283F83D20002318460837BD4680BDBE
:102F180080B485B000AF78607B6893F83D30DBB251
:102F2800012B01D001234EE07B68022283F83D206B
:102F38007B681B68DA687B681B6842F00102DA600C
:102F48007B681B68234A934222D07B681B68B3F1D5
:102F5800804F1DD07B681B681F4A934218D07B683E
:102F68001B681E4A934213D07B681B681C4A934215
:102F78000ED07B681B681B4A934209D07B681B688C
:102F8800194A934204D07B681B68184A934211D1AE
:102F98007B681B689B6803F00703FB60FB68062BD4
:102FA80010D07B681B681A687B681B6842F00102B6
:102FB8001A6007E07B681B681A687B681B6842F028
:102FC80001021A60002318461437BD465DF8047BD9
:102FD800704700BF000001400004004000080040A6
:102FE800000C00400004014000400140001800406F
:102FF80080B584B000AF78607B681B68DB68FB60D5
:103008007B681B681B69BB60BB6803F00203002B6D
:1030180020D0FB6803F00203002B1BD07B681B68E1
:103028006FF002021A617B6801221A777B681B68BD
:103038009B6903F00303002B03D0786800F099F92B
:1030480005E0786800F08BF9786800F09CF97B68F7
:1030580000221A77BB6803F00403002B20D0FB681A
:1030680003F00403002B1BD07B681B686FF004027D
:103078001A617B6802221A777B681B689B6903F4D4
:103088004073002B03D0786800F073F905E0786886
:1030980000F065F9786800F076F97B6800221A7705
:1030A800BB6803F00803002B20D0FB6803F008037B
:1030B800002B1BD07B681B686FF008021A617B68C5
:1030C80004221A777B681B68DB6903F00303002B73
:1030D80003D0786800F04DF905E0786800F03FF912
:1030E800786800F050F97B6800221A77BB6803F013
:1030F8001003002B20D0FB6803F01003002B1BD01B
:103108007B681B686FF010021A617B6808221A77C7
:103118007B681B68DB6903F44073002B03D0786875
:1031280000F027F905E0786800F019F9786800F0F0
:103138002AF97B6800221A77BB6803F00103002B89
:103148000CD0FB6803F00103002B07D07B681B68D9
:103158006FF001021A617868FDF7E2F9BB6803F0C5
:103168008003002B0CD0FB6803F08003002B07D0F2
:103178007B681B686FF080021A61786800F0E4FAD7
:10318800BB6803F04003002B0CD0FB6803F040033E
:10319800002B07D07B681B686FF040021A617868C3
:1031A80000F0FBF8BB6803F02003002B0CD0FB6891
:1031B80003F02003002B07D07B681B686FF0200208
:1031C8001A61786800F0B6FA00BF1037BD4680BDB6
:1031D80080B584B000AF786039600023FB737B68EA
:1031E80093F83C30012B01D10223B4E07B68012223
:1031F80083F83C207B68022283F83D207B681B68AB
:103208009B68BB60BB6823F07703BB60BB6823F493
:103218007F43BB607B681B68BA689A603B681B6821
:10322800B3F5005F3ED0B3F5005F00F28780B3F5D9
:10323800805F00F08680B3F5805F7FD8702B1AD04E
:10324800702B7BD8602B50D0602B77D8502B3CD07C
:10325800502B73D8402B58D0402B6FD8302B64D0CC
:10326800302B6BD8202B60D0202B67D8002B5CD05C
:10327800102B5AD062E07B6818683B6899683B68F5
:103288005A683B68DB6800F0B9F97B681B689B6883
:10329800BB60BB6843F07703BB607B681B68BA6898
:1032A8009A604FE07B6818683B6899683B685A6881
:1032B8003B68DB6800F0A2F97B681B689A687B684A
:1032C8001B6842F480429A603CE07B6818683B685F
:1032D80059683B68DB681A4600F016F97B681B687A
:1032E8005021184600F06FF92CE07B6818683B689D
:1032F80059683B68DB681A4600F035F97B681B683B
:103308006021184600F05FF91CE07B6818683B688C
:1033180059683B68DB681A4600F0F6F87B681B685A
:103328004021184600F04FF90CE07B681A683B68AA
:103338001B681946104600F046F903E00123FB73A9
:1033480000E000BF7B68012283F83D207B680022F3
:1033580083F83C20FB7B18461037BD4680BD80B4FF
:1033680083B000AF786000BF0C37BD465DF8047BC2
:10337800704780B483B000AF786000BF0C37BD469B
:103388005DF8047B704780B483B000AF786000BFFD
:103398000C37BD465DF8047B704780B483B000AF3E
:1033A800786000BF0C37BD465DF8047B70470000AD
:1033B80080B485B000AF786039607B681B68FB60BB
:1033C8007B68464A934213D07B68B3F1804F0FD095
:1033D8007B68434A93420BD07B68424A934207D0AA
:1033E8007B68414A934203D07B68404A934208D1A4
:1033F800FB6823F07003FB603B685B68FA68134363
:10340800FB607B68354A93422BD07B68B3F1804FD1
:1034180027D07B68324A934223D07B68314A934253
:103428001FD07B68304A93421BD07B682F4A934257
:1034380017D07B682E4A934213D07B682D4A93425B
:103448000FD07B682C4A93420BD07B682B4A93425F
:1034580007D07B682A4A934203D07B68294A934263
:1034680008D1FB6823F44073FB603B68DB68FA68AB
:103478001343FB60FB6823F080023B685B691343DE
:10348800FB607B68FA681A603B689A687B68DA6256
:103498003B681A687B689A627B68104A934203D03B
:1034A8007B68124A934203D13B681A697B681A63A6
:1034B8007B6801225A617B681B6903F00103012BB9
:1034C80005D17B681B6923F001027B681A6100BF84
:1034D8001437BD465DF8047B704700BF000001400B
:1034E8000004004000080040000C004000040140B7
:1034F80000400140004401400048014000180040DD
:10350800001C00400020004080B487B000AFF86085
:10351800B9607A60FB681B6A7B61FB681B6A23F0F1
:103528000102FB681A62FB689B693B613B6923F0F7
:10353800F0033B617B681B013A6913433B617B697C
:1035480023F00A037B617A69BB6813437B61FB68DC
:103558003A699A61FB687A691A6200BF1C37BD46EE
:103568005DF8047B704780B487B000AFF860B9603D
:103578007A60FB681B6A7B61FB681B6A23F0100298
:10358800FB681A62FB689B693B613B6923F47043E3
:103598003B617B681B033A6913433B617B6923F0FA
:1035A800A0037B61BB681B017A6913437B61FB68DD
:1035B8003A699A61FB687A691A6200BF1C37BD468E
:1035C8005DF8047B704780B485B000AF78603960DF
:1035D8007B689B68FB60FB6823F07003FB603A68BC
:1035E800FB68134343F00703FB607B68FA689A6043
:1035F80000BF1437BD465DF8047B704780B487B0C0
:1036080000AFF860B9607A603B60FB689B687B61DB
:103618007B6923F47F437B613B681A027B681A430A
:10362800BB6813437A6913437B61FB687A699A60C4
:1036380000BF1C37BD465DF8047B704780B485B079
:1036480000AF786039607B6893F83C30012B01D17A
:1036580002235AE07B68012283F83C207B6802221F
:1036680083F83D207B681B685B68FB607B681B6890
:103678009B68BB60FB6823F07003FB603B681B68BA
:10368800FA681343FB607B681B68FA685A607B68BA
:103698001B68214A934222D07B681B68B3F1804F94
:1036A8001DD07B681B681D4A934218D07B681B6835
:1036B8001B4A934213D07B681B681A4A93420ED068
:1036C8007B681B68184A934209D07B681B68174AB5
:1036D800934204D07B681B68154A93420CD1BB689F
:1036E80023F08003BB603B685B68BA681343BB6028
:1036F8007B681B68BA689A607B68012283F83D2062
:103708007B68002283F83C20002318461437BD4606
:103718005DF8047B704700BF0000014000040040D2
:1037280000080040000C0040000401400040014037
:103738000018004080B483B000AF786000BF0C3739
:10374800BD465DF8047B704780B483B000AF7860F5
:1037580000BF0C37BD465DF8047B704784B080B568
:1037680084B000AF786007F11C0080E80E0097F87D
:103778002130012B23D17B689B6B23F480327B683B
:103788009A637B68DB6823F4840323F040037A6838
:10379800D3607B68DB6823F440127B68DA6097F8B3
:1037A8002830012B05D17B68DB6843F480127B68E5
:1037B800DA60786801F0E8FA0346FB731BE07B687F
:1037C800DB6843F040027B68DA60786801F0DCFA75
:1037D8000346FB7397F82530002B06D17B689B6B5B
:1037E80043F480327B689A6305E07B689B6B23F423
:1037F80080327B689A63BB7F012B0BD17B689B6807
:1038080043F006027B689A607B689B6843F020025D
:103818007B689A60FB7B18461037BD46BDE8804040
:1038280004B0704780B487B000AFF860B960134641
:10383800FB71FB79022B65D1BB68414A934206D9DB
:10384800BB68404A934202D20F237B6162E0BB68A7
:103858003C4A934206D3BB683B4A934202D20E23AA
:103868007B6157E0BB68384A934206D3BB68374A46
:10387800934202D20D237B614CE0BB68334A9342EA
:1038880006D3BB68324A934202D80C237B6141E0DD
:10389800BB682F4A934206D9BB682E4A934202D886
:1038A8000B237B6136E0BB682A4A934206D9BB6882
:1038B800294A934202D80A237B612BE0BB68264A37
:1038C800934206D9BB68254A934202D209237B61F9
:1038D80020E0BB68214A934206D3BB68204A934242
:1038E80002D808237B6115E0BB681D4A934206D9BC
:1038F800BB681C4A934202D207237B610AE0062375
:103908007B6107E0FB79002B02D109237B6101E091
:1039180009237B61FB68DB6823F47052FB68DA607B
:10392800FB68DA687B699B0203F470531A43FB68EF
:10393800DA60002318461C37BD465DF8047B7047E3
:10394800BFACD800C0E1E4000024F4008073060195
:103958009F491A01FF2C31013FA44C0100366E012A
:103968001FABA6010048E80180B483B000AF7860BF
:103978007B689B6843F001027B689A6000231846C5
:103988000C37BD465DF8047B704780B483B000AF48
:1039980078607B689B6823F001027B689A6000234B
:1039A80018460C37BD465DF8047B704780B584B077
:1039B80000AF78600B46FB700023FB607B68DB6818
:1039C80023F0C0427B68DA60FB78012B15D17B6855
:1039D800DB6843F000527B68DA600A20FDF78EF856
:1039E800FB680A33FB60786801F03FF90346012B56
:1039F8001ED0FB68C72BF0D91AE0FB78002B15D135
:103A08007B68DB6843F080427B68DA600A20FDF758
:103A180075F8FB680A33FB60786801F026F90346FD
:103A2800002B05D0FB68C72BF0D901E0012305E086
:103A3800FB68C82B01D1012300E00023184610378A
:103A4800BD4680BD84B080B586B000AF786007F110
:103A5800240080E80E000023FB757B68FB600023D0
:103A68003B6109E07A683B6940339B0013440022BC
:103A78005A603B6901333B613B690E2BF2D997F8D9
:103A88002E30002B1CD1FB6803F500635B68FA68D5
:103A980002F5006243F0020353607B689B6B43F4BA
:103AA80000127B689A637B689B6B23F400227B6817
:103AB8009A637B689B6B23F480227B689A630BE094
:103AC8007B689B6B23F400127B689A637B689B6B13
:103AD80043F400227B689A63FB6803F560631A4627
:103AE8000023136097F82930012B0DD197F8273060
:103AF800002B04D10021786800F068F908E0012162
:103B0800786800F063F903E00321786800F05EF953
:103B18001021786800F0FAF80346002B01D0012341
:103B2800FB75786800F024F90346002B01D00123C7
:103B3800FB75FB6803F500631A4600231361FB68F5
:103B480003F500631A4600235361FB6803F500631D
:103B58001A460023D36100233B6143E03B695A01C5
:103B6800FB68134403F510631B6803F00043B3F1CB
:103B7800004F18D13B69002B0AD13B695A01FB68F9
:103B8800134403F510631A464FF00063136013E003
:103B98003B695A01FB68134403F510631A464FF05A
:103BA8009043136008E03B695A01FB68134403F52E
:103BB80010631A46002313603B695A01FB681344DB
:103BC80003F510631A46002313613B695A01FB6829
:103BD800134403F510631A464FF67F3393603B692D
:103BE80001333B6197F824301A463B699342B5D3B9
:103BF80000233B6143E03B695A01FB68134403F52A
:103C080030631B6803F00043B3F1004F18D13B69E0
:103C1800002B0AD13B695A01FB68134403F5306352
:103C28001A464FF00063136013E03B695A01FB68C2
:103C3800134403F530631A464FF09043136008E0CD
:103C48003B695A01FB68134403F530631A460023A5
:103C580013603B695A01FB68134403F530631A4645
:103C6800002313613B695A01FB68134403F5306371
:103C78001A464FF67F3393603B6901333B6197F8EF
:103C880024301A463B699342B5D3FB6803F50063B9
:103C98001B69FA6802F5006223F4807313617B687C
:103CA80000229A617B686FF080425A6197F826304B
:103CB800002B05D17B689B6943F010027B689A61F1
:103CC8007B689A69104B13437A68936197F82A3096
:103CD800002B05D07B689B6943F008027B689A61DA
:103CE80097F82E30012B07D17B689B6943F08043FE
:103CF80043F004037A689361FB7D18461837BD4684
:103D0800BDE8804004B0704700383C8080B485B07E
:103D180000AF786039600023FB60FB680133FB600B
:103D2800FB68B3F1706F01D903231BE07B681B6943
:103D3800002BF2DA0023FB603B689B0143F0200272
:103D48007B681A61FB680133FB60FB68B3F1706F35
:103D580001D9032306E07B681B6903F02003202BAD
:103D6800F0D0002318461437BD465DF8047B704731
:103D780080B485B000AF78600023FB60FB68013336
:103D8800FB60FB68B3F1706F01D9032318E07B680F
:103D98001B69002BF2DA0023FB607B6810221A6192
:103DA800FB680133FB60FB68B3F1706F01D9032333
:103DB80006E07B681B6903F01003102BF0D000238A
:103DC80018461437BD465DF8047B704780B485B04B
:103DD80000AF78600B46FB707B68FB60FB6803F5FF
:103DE80000631A68FB78F96801F5006113430B60FA
:103DF800002318461437BD465DF8047B704780B42D
:103E080087B000AF78607B683B613B6903F500636E
:103E18009B6803F00603FB60FB68002B02D10023BC
:103E2800FB750AE0FB68022B02D0FB68062B02D167
:103E38000223FB7501E00F23FB75FB7D18461C3739
:103E4800BD465DF8047B704780B485B000AF7860EC
:103E580039607B68FB603B681B78BB603B685B78BC
:103E6800012B3AD1FB6803F50063DA693B681B78DC
:103E780003F00F03012101FA03F39BB2F96801F57E
:103E880000611343CB61BB685A01FB68134403F517
:103E980010631B6803F40043002B55D1BB685A011B
:103EA800FB68134403F510631A683B689B68C3F307
:103EB8000A013B681B799B041943BB689B050B43AC
:103EC8001343BA685101FA680A4402F5106243F0D4
:103ED800805343F40043136036E0FB6803F5006346
:103EE800DA693B681B7803F00F03012101FA03F339
:103EF8001B04F96801F500611343CB61BB685A01E3
:103F0800FB68134403F530631B6803F40043002B7C
:103F18001AD1BB685A01FB68134403F530631A6869
:103F28003B689B68C3F30A013B681B799B040B43FE
:103F38001343BA685101FA680A4402F5306243F043
:103F4800805343F400431360002318461437BD46DA
:103F58005DF8047B7047000080B485B000AF7860DE
:103F680039607B68FB603B681B78BB603B685B78AB
:103F7800012B61D1BB685A01FB68134403F5106338
:103F88001B6803F00043B3F1004F1FD1BB685A010F
:103F9800FB68134403F510631B68BA685101FA689B
:103FA8000A4402F5106243F000631360BB685A01CB
:103FB800FB68134403F510631B68BA685101FA687B
:103FC8000A4402F5106243F080431360FB6803F56E
:103FD8000063DA6B3B681B7803F00F03012101FAD9
:103FE80003F39BB2DB43F96801F500611340CB632F
:103FF800FB6803F50063DA693B681B7803F00F037D
:10400800012101FA03F39BB2DB43F96801F5006172
:104018001340CB61BB685A01FB68134403F5106376
:104028001A68BB685901FB680B4403F5106319460D
:10403800354B13400B6060E0BB685A01FB681344C2
:1040480003F530631B6803F00043B3F1004F1FD141
:10405800BB685A01FB68134403F530631B68BA68F0
:104068005101FA680A4402F5306243F000631360B4
:10407800BB685A01FB68134403F530631B68BA68D0
:104088005101FA680A4402F5306243F08043136034
:10409800FB6803F50063DA6B3B681B7803F00F03DA
:1040A800012101FA03F31B04DB43F96801F5006100
:1040B8001340CB63FB6803F50063DA693B681B7840
:1040C80003F00F03012101FA03F31B04DB43F96832
:1040D80001F500611340CB61BB685A01FB681344CA
:1040E80003F530631A68BB685901FB680B4403F594
:1040F80030631946054B13400B60002318461437EC
:10410800BD465DF8047B7047007833EC0078F3EF28
:1041180080B58AB002AFF860B9601346FB71FB68DE
:10412800FB61BB681B78BB61BB685B78012B40F007
:104138007F81BB681B69002B32D1BB695A01FB69BF
:10414800134403F510631B69BA695101FA690A44FB
:1041580002F5106223F0FF5323F4C0131361BB6907
:104168005A01FB69134403F510631B69BA695101CD
:10417800FA690A4402F5106243F400231361BB692B
:104188005A01FB69134403F510631B69BA695101AD
:10419800FA690A4402F51062DB0CDB04136197E04C
:1041A800BB695A01FB69134403F510631B69BA69BB
:1041B8005101FA690A4402F51062DB0CDB04136151
:1041C800BB695A01FB69134403F510631B69BA699B
:1041D8005101FA690A4402F5106223F0FF5323F4EF
:1041E800C0131361BB69002B1AD1BB681A69BB687D
:1041F8009B689A4203D9BB689A68BB681A61BB6915
:104208005A01FB69134403F510631B69BA6951012C
:10421800FA690A4402F5106243F40023136144E08A
:10422800BB681A69BB689B6813445A1EBB689B68C5
:10423800B2FBF3F3FB82BB695A01FB69134403F534
:1042480010631A69FB8AD904A44B0B40B969480169
:10425800F969014401F5106113430B61BB681B79CF
:10426800012B22D1BB695A01FB69134403F5106382
:104278001B69BA695101FA690A4402F5106223F010
:10428800C0431361BB695A01FB69134403F510630A
:104298001A69FB8A5B0703F0C043B9694801F969E9
:1042A800014401F5106113430B61BB695A01FB69B5
:1042B800134403F510631A69BB681B69C3F312033F
:1042C800B9694801F969014401F5106113430B61AB
:1042D800FB79012B4BD1BB68DB69002B09D0BB698B
:1042E8005A01FB69134403F510631A46BB68DB697E
:1042F8005361BB681B79012B28D1FB6903F5006367
:104308009B6803F48073002B10D1BB695A01FB69C9
:10431800134403F510631B68BA695101FA690A442A
:1043280002F5106243F0005313600FE0BB695A01B5
:10433800FB69134403F510631B68BA695101FA69F4
:104348000A4402F5106243F080531360BB695A01B6
:10435800FB69134403F510631B68BA695101FA69D4
:104368000A4402F5106243F00443136066E1BB6936
:104378005A01FB69134403F510631B68BA695101BC
:10438800FA690A4402F5106243F004431360BB68FB
:104398001B79012B15D0BB681B69002B00F04E81DF
:1043A800FB6903F500635A6BBB681B7803F00F03C6
:1043B800012101FA03F3F96901F5006113434B6325
:1043C8003CE1FB6903F500639B6803F48073002BF1
:1043D80010D1BB695A01FB69134403F510631B68CC
:1043E800BA695101FA690A4402F5106243F00053B0
:1043F80013600FE0BB695A01FB69134403F51063AE
:104408001B68BA695101FA690A4402F5106243F05F
:1044180080531360BB68D968BB681A78BB681B698E
:1044280098B2FB7900930346F86800F0B9F905E102
:10443800BB695A01FB69134403F530631B69BA6908
:104448005101FA690A4402F53062DB0CDB0413619E
:10445800BB695A01FB69134403F530631B69BA69E8
:104468005101FA690A4402F5306223F0FF5323F43C
:10447800C0131361BB69002B32D1BB681B69002BC9
:1044880003D0BB689A68BB681A61BB689A68BB6846
:104498001A62BB695A01FB69134403F530631A6950
:1044A800BB681B6AC3F31203B9694801F96901447F
:1044B80001F5306113430B61BB695A01FB69134471
:1044C80003F530631B69BA695101FA690A4402F5B8
:1044D800306243F40023136162E000BF0000F81F5C
:1044E800BB681B69002B23D1BB695A01FB691344C4
:1044F80003F530631A69BB689B68C3F31203B96993
:104508004801F969014401F5306113430B61BB6946
:104518005A01FB69134403F530631B69BA695101F9
:10452800FA690A4402F5306243F40023136137E064
:10453800BB681A69BB689B6813445A1EBB689B68B2
:10454800B2FBF3F3FB82BB689B68FA8A03FB02F2B7
:10455800BB681A62BB695A01FB69134403F53063EF
:104568001A69FB8AD904384B0B40B9694801F969C3
:10457800014401F5306113430B61BB695A01FB69C2
:10458800134403F530631A69BB681B6AC3F312034B
:10459800B9694801F969014401F5306113430B61B8
:1045A800FB79012B0DD1BB68DB68002B09D0BB68F8
:1045B800D968BB695A01FB69134403F530630A469D
:1045C8005A61BB681B79012B28D1FB6903F500638D
:1045D8009B6803F48073002B10D1BB695A01FB69F7
:1045E800134403F530631B68BA695101FA690A4438
:1045F80002F5306243F0005313600FE0BB695A01C3
:10460800FB69134403F530631B68BA695101FA6901
:104618000A4402F5306243F080531360BB695A01C3
:10462800FB69134403F530631B68BA695101FA69E1
:104638000A4402F5306243F004431360002318462D
:104648002037BD4680BD00BF0000F81F80B487B08A
:1046580000AF786039600023FB600023FB757B683E
:104668003B613B685B78012B4AD13B681B785A0158
:104678003B69134403F510631B6803F00043B3F16F
:10468800004F40F086803B681B785A013B69134411
:1046980003F510631B683A68127851013A690A44B5
:1046A80002F5106243F0006313603B681B785A01FF
:1046B8003B69134403F510631B683A68127851018B
:1046C8003A690A4402F5106243F080431360FB68BC
:1046D8000133FB60FB6842F21072934202D9012356
:1046E800FB7556E03B681B785A013B69134403F598
:1046F80010631B6803F00043B3F1004FE7D048E0B4
:104708003B681B785A013B69134403F530631B6807
:1047180003F00043B3F1004F3BD13B681B785A01CB
:104728003B69134403F530631B683A6812785101FA
:104738003A690A4402F5306243F0006313603B684B
:104748001B785A013B69134403F530631B683A68C8
:10475800127851013A690A4402F5306243F0804305
:104768001360FB680133FB60FB6842F210729342EE
:1047780002D90123FB750CE03B681B785A013B69A1
:10478800134403F530631B6803F00043B3F1004F93
:10479800E7D0FB7D18461C37BD465DF8047B7047A3
:1047A80080B489B000AFF860B96011461A460B466C
:1047B800FB711346BB80FB687B61BB68FB6197F8A4
:1047C8002830002B23D1BB8803339B083B6100238F
:1047D800BB6118E0FB791A037B69134403F5805326
:1047E8001A46FB691B681360FB690133FB61FB69AF
:1047F8000133FB61FB690133FB61FB690133FB6139
:10480800BB690133BB61BA693B699A42E2D30023B1
:1048180018462437BD465DF8047B704780B48BB0DA
:1048280000AFF860B9601346FB80FB68BB61BB68EA
:104838007B62FB889B089BB27B61FB8803F00303C8
:10484800FB8300233B6214E0BB6903F580531A68BD
:104858007B6A1A607B6A01337B627B6A01337B6205
:104868007B6A01337B627B6A01337B623B6A01337B
:104878003B623A6A7B699A42E6D3FB8B002B1ED0D7
:1048880000233B62BB6903F580531A4607F1100306
:1048980012681A603A693B6ADBB2DB0022FA03F35A
:1048A800DAB27B6A1A703B6A01333B627B6A013376
:1048B8007B62FB8B013BFB83FB8B002BEAD17B6A82
:1048C80018462C37BD465DF8047B704780B485B028
:1048D80000AF786039607B68FB603B681B78BB6021
:1048E8003B685B78012B2CD1BB685A01FB681344E9
:1048F80003F510631B68002B12DBBB68002B0FD07D
:10490800BB685A01FB68134403F510631B68BA6857
:104918005101FA680A4402F5106223F080431360DB
:10492800BB685A01FB68134403F510631B68BA6837
:104938005101FA680A4402F5106243F40013136047
:104948002BE0BB685A01FB68134403F530631B680E
:10495800002B12DBBB68002B0FD0BB685A01FB6829
:10496800134403F530631B68BA685101FA680A44B6
:1049780002F5306223F080431360BB685A01FB687C
:10498800134403F530631B68BA685101FA680A4496
:1049980002F5306243F400131360002318461437FD
:1049A800BD465DF8047B704780B485B000AF786081
:1049B80039607B68FB603B681B78BB603B685B7851
:1049C800012B28D1BB685A01FB68134403F5106317
:1049D8001B68BA685101FA680A4402F5106223F4A8
:1049E800001313603B681B79032B03D03B681B79CA
:1049F800022B38D1BB685A01FB68134403F51063D6
:104A08001B68BA685101FA680A4402F5106243F05B
:104A18008053136027E0BB685A01FB68134403F511
:104A280030631B68BA685101FA680A4402F53062BB
:104A380023F4001313603B681B79032B03D03B68F6
:104A48001B79022B0FD1BB685A01FB68134403F58D
:104A580030631B68BA685101FA680A4402F530628B
:104A680043F080531360002318461437BD465DF8A1
:104A7800047B704780B485B000AF78600B46FB704C
:104A88007B68FB60FB6803F500631B68FA6802F546
:104A9800006223F4FE631360FB6803F500631A6881
:104AA800FB781B0103F4FE63F96801F50061134309
:104AB8000B60002318461437BD465DF8047B704729
:104AC80080B485B000AF78607B68FB60FB6803F555
:104AD80060631B68FA6802F5606223F003031360E1
:104AE800FB6803F500635B68FA6802F5006223F06F
:104AF80002035360002318461437BD465DF8047B53
:104B0800704780B485B000AF78607B68FB60FB6855
:104B180003F560631B68FA6802F5606223F003031B
:104B28001360FB6803F500635B68FA6802F50062CE
:104B380043F002035360002318461437BD465DF85E
:104B4800047B704780B485B000AF78607B685B6990
:104B5800FB607B689B69FA681340FB60FB6818463A
:104B68001437BD465DF8047B704780B485B000AF4C
:104B780078607B68FB60FB6803F500639B69BB603A
:104B8800FB6803F50063DB69BA681340BB60BB6868
:104B98001B0C18461437BD465DF8047B704780B47B
:104BA80085B000AF78607B68FB60FB6803F5006345
:104BB8009B69BB60FB6803F50063DB69BA68134057
:104BC800BB60BB689BB218461437BD465DF8047BD2
:104BD800704780B485B000AF78600B46FB707B6887
:104BE800FB60FB785A01FB68134403F530639B684C
:104BF800BB60FB6803F500635B69BA681340BB6080
:104C0800BB6818461437BD465DF8047B704780B40E
:104C180087B000AF78600B46FB707B687B617B696F
:104C280003F500631B693B617B6903F500635B6BFC
:104C3800FB60FB7803F00F03FA6822FA03F3DB0149
:104C4800DBB23A6913433B61FB785A017B69134431
:104C580003F510639B683A691340BB60BB6818464C
:104C68001C37BD465DF8047B704780B483B000AF45
:104C780078607B685B6903F0010318460C37BD4612
:104C88005DF8047B704780B485B000AF78607B68BE
:104C9800FB60FB6803F510631B68FA6802F5106295
:104CA80023F4FF6323F007031360FB6803F5006335
:104CB8005B68FA6802F5006243F48073536000236E
:104CC80018461437BD465DF8047B704780B487B03A
:104CD80000AFF8600B467A60FB72FB687B61FB688B
:104CE8003C3304331B683B613B69264A93420AD92B
:104CF8007B6903F530631B6803F00043B3F1004F91
:104D080001D1002337E07B6903F530631A4600239D
:104D180013617B6903F530631B697A6902F53062B8
:104D280043F4002313617B6903F530631B697A69D7
:104D380002F5306243F0180313617B6903F53063B1
:104D48001B697A6902F5306243F0C0431361FB7A4C
:104D5800012B0FD17B6903F530631A467B685361D9
:104D68007B6903F530631B687A6902F5306243F0AA
:104D780080231360002318461C37BD465DF8047B6A
:104D8800704700BF0A30544F80B485B000AF7860D8
:104D98000023FB60FB680133FB60FB68B3F1706FB5
:104DA80001D903231BE07B681B69002BF2DA00237F
:104DB800FB607B681B6943F001027B681A61FB6832
:104DC8000133FB60FB68B3F1706F01D9032306E080
:104DD8007B681B6903F00103012BF0D00023184600
:104DE8001437BD465DF8047B704780B485B000AFCA
:104DF80078600B467B800023FB810023BB810AE09F
:104E0800BB897A6813441B781A46FB891344FB81D3
:104E1800BB890133BB81BA897B889A42F0D3FB896D
:104E280018461437BD465DF8047B704780B582B0DC
:104E380000AF78607B689B8B1A467B689B7992FBF6
:104E4800F3F39AB27B685A827B680C331846FBF7F7
:104E580048FD7B68002283F82D2000BF0837BD4637
:104E680080BD000080B586B000AFF860B960134619
:104E7800FB800023FB75FB88023B9BB21946B86890
:104E8800FFF7B3FF0346BB82FB6893F82C30002B77
:104E980040F01D81BA8AFB88013BB9680B441B7836
:104EA8001B02F9880239B868014409780B439A4211
:104EB80003D0FB689B6A01209847BB6801331B78C5
:104EC800DB09DBB203F00103D9B2FA68137961F3A5
:104ED80000031371BB6801331B7803F07F03DAB258
:104EE800FB685A71FB685B79013B052B00F2F18086
:104EF80001A252F823F000BF194F0008854F00089F
:104F0800C94F000821500008DB500008475000082E
:104F1800FB689B6A00209847FB681B7903F0010334
:104F2800DBB2002B14D00723FB80BB6802330222BC
:104F38001A70FB685B881B0A9AB2BB680333D2B24B
:104F48001A70FB685A88BB680433D2B21A709BE0A7
:104F58000523FB80BB6803331B781BB21B021AB204
:104F6800BB6804331B781BB213431BB29AB2FB68AD
:104F78005A80BB68023300221A7085E0FB689B6A7E
:104F880000209847FB681B7903F00103DBB2002B74
:104F98000BD00623FB80BB68023301221A70BB6862
:104FA8000333FA6892791A706EE00523FB80BB68B8
:104FB800DA78FB689A71BB68023300221A7063E0E2
:104FC800FB689B6A00209847FB681B7903F0010384
:104FD800DBB2002B0ED00623FB80BB680233012214
:104FE8001A70FB681B78C3F30003DAB2BB6803339B
:104FF8001A7049E00523FB80BB6803331B7803F074
:105008000103D9B2FA68137861F300031370BB681F
:10501800023300221A7037E0FB689B6A0020984729
:10502800FB681B7903F00103DBB2002B29D10123B4
:10503800FB75BB68DA78FB6883F82C2021E0FB68F5
:105048009B6A00209847FB681B7903F00103DBB2D9
:10505800002B18D00723FB80FB689B8B1A46FB6844
:105068009B7992FBF3F37B827B8A1B0A9AB2BB681B
:105078000333D2B21A70BB6804337A8AD2B21A7078
:1050880001E000BF00E000BFFB7D002B22D1FB88C0
:10509800023B9BB21946B868FFF7A7FE0346BB82DE
:1050A800BB8A1B0A99B2FB88023BBA681344CAB28E
:1050B8001A70FB88013BBA681344BA8AD2B21A70D4
:1050C800FB685B6AFA881146B868984702E000BF37
:1050D80000E000BF1837BD4680BD00BF80B584B072
:1050E80000AF78607B6893F82D30002B21D17B6866
:1050F800012283F82D207B680C331846FBF721FC2E
:105108000346FB817B689B69B7F90E20796889792A
:1051180001FB02F298187B6899687B689B791A46AC
:1051280002F084FD7B68002283F82D20786800F067
:1051380004F800BF1037BD4680BD80B584B000AF0D
:1051480078607B680C331846FBF7E9FB0346002BB5
:1051580038D17B6893F82C30002B33D07B6893F8D8
:105168002D30002B2ED17B68012283F82D207B68FF
:105178000C331846FBF720FC0346FB817B6893F849
:105188002C30013BDAB27B6883F82C207B68186AE4
:105198007B689B69B7F90E207968897901FB02F26F
:1051A80099187B689B791A4602F040FD7B685B6A18
:1051B8007A68106A7A689279114698477B68002263
:1051C80083F82D2000BF1037BD4680BD80B582B062
:1051D80000AF78607868FFF7B0FF00BF0837BD46BA
:1051E80080BD000080B584B000AF78600B46FB70CE
:1051F8004FF4077002F0AAFCF860FB68002B09D195
:105208007B68D3F8D4227B68B032002143F822109F
:105218000223D4E04FF407720021F86802F0DAFCA8
:105228007B68D3F8D4227B68B032F96843F822103F
:105238007B68D3F8D4227B68B03253F822207B688D
:10524800C3F8BC227B681B7C002B38D15E4B1978D5
:105258004FF400730222786802F055FB5A4B1B7812
:1052680003F00F02796813469B0013449B000B441C
:10527800243301221A80554B19784FF40073022207
:10528800786802F040FB514B1B7803F00F027968F5
:1052980013469B0013449B000B4403F5B273012291
:1052A8001A804B4B1B7803F00F02796813469B005A
:1052B80013449B000B44263310221A8035E0424BDE
:1052C800197840230222786802F01DFB3E4B1B78B8
:1052D80003F00F02796813469B0013449B000B44AC
:1052E800243301221A80394B197840230222786826
:1052F80002F009FB354B1B7803F00F02796813465F
:105308009B0013449B000B4403F5B27301221A80DF
:105318002F4B1B7803F00F02796813469B00134448
:105328009B000B44263310221A80294B1978082336
:105338000322786802F0E7FA254B1B7803F00F0286
:10534800796813469B0013449B000B4424330122C5
:105358001A80FB680022C3F804227B68D3F8D43291
:105368007A68B0339B0013445B681B689847FB68F6
:105378000022C3F81422FB680022C3F81822FB6835
:10538800D3F80432002B01D1022318E07B681B7C80
:10539800002B0AD10D4B1978FB68D3F804224FF47F
:1053A8000073786802F09EFB08E0084B1978FB68E8
:1053B800D3F804224023786802F094FB00231846AF
:1053C8001037BD4680BD00BFE3000020E400002088
:1053D800E500002080B582B000AF78600B46FB7016
:1053E8003A4B1B781946786802F0B3FA374B1B78AA
:1053F80003F00F02796813469B0013449B000B448B
:10540800243300221A80324B1B781946786802F040
:10541800A0FA2F4B1B7803F00F02796813469B0004
:1054280013449B000B4403F5B27300221A80294BE6
:105438001B781946786802F08CFA264B1B7803F023
:105448000F02796813469B0013449B000B442433D6
:1054580000221A801F4B1B7803F00F02796813464D
:105468009B0013449B000B44263300221A807B6860
:10547800D3F8D4227B68B03253F82230002B1FD0E7
:105488007B68D3F8D4327A68B0339B0013445B68E6
:105498005B6898477B68D3F8D4227B68B03253F8AE
:1054A8002230184602F060FB7B68D3F8D4227B6870
:1054B800B032002143F822107B680022C3F8BC22D6
:1054C800002318460837BD4680BD00BFE300002012
:1054D800E4000020E500002080B586B000AF7860C9
:1054E80039607B68D3F8D4227B68B03253F8223015
:1054F8003B6100237B7300237B810023FB753B69A1
:10550800002B01D10323BFE03B681B7803F0600345
:10551800002B50D0202B40F0AF803B68DB88002B5D
:105528003AD03B681B785BB2002B1BDA7B68D3F858
:10553800D4327A68B0339B0013445B689B683A683E
:10554800507839693A68D28898473B68DB88072BD6
:1055580028BF0723FB813B69FA891946786801F05F
:1055680093FD90E03B685A783B6983F800223B68DA
:10557800DB883F2B03D83B68DB88DAB200E04022A7
:105588003B6983F8012239693B6993F801321A466D
:10559800786801F0A5FD76E07B68D3F8D4327A68A4
:1055A800B0339B0013445B689B683A6850780022CC
:1055B8003968984767E03B685B780B2B51D801A2A4
:1055C80052F823F0FD550008795600086B5600087C
:1055D8006B5600086B5600086B5600086B5600089F
:1055E8006B5600086B5600086B56000827560008D3
:1055F800515600087B6893F89C32DBB2032B07D125
:1056080007F10A0302221946786801F03DFD32E0ED
:105618003968786801F0BBFC0323FB752BE07B68D5
:1056280093F89C32DBB2032B07D107F10D0301225B
:105638001946786801F028FD1DE03968786801F09E
:10564800A6FC0323FB7516E07B6893F89C32DBB25B
:10565800032B0FD03968786801F099FC0323FB7598
:1056680008E03968786801F092FC0323FB7502E0D2
:1056780000BF08E000BF06E03968786801F087FCE1
:105688000323FB7500BFFB7D18461837BD4680BD58
:1056980080B584B000AF78600B46FB707B68D3F8A8
:1056A800C832FB607B68D3F8D4227B68B03253F8E9
:1056B8002230002B01D1032365E07B68D3F8D42284
:1056C8007B68B03253F82230BB60FB7803F00F02DE
:1056D800796813469B0013449B000B4418331B68DE
:1056E800002B2FD0FB7803F00F02796813469B003C
:1056F80013449B000B4418331A68FB7803F00F011E
:10570800F8680B46DB000B449B0003441C331B6802
:10571800B2FBF3F101FB03F3D31A002B12D1FB7890
:1057280003F00F02796813469B0013449B000B4457
:10573800183300221A60F97800230022786802F0F2
:10574800B0F91FE0BB680022C3F814227B68D3F8C5
:10575800D4327A68B0339B0013445B681B69002B12
:1057680010D07B68D3F8D4327A68B0339B001344E6
:105778005B681B69BA68D2F80802BA6802F5047156
:10578800FA789847002318461037BD4680BD80B583
:1057980084B000AF78600B46FB707B68D3F8D422E6
:1057A8007B68B03253F82230FB607B68D3F8D42290
:1057B8007B68B03253F82230002B01D103231AE062
:1057C800FB781946786802F0AEF90246FB68C3F820
:1057D8000C227B68D3F8D4327A68B0339B00134428
:1057E8005B68DB68FA68D2F80402FA6802F50372AB
:1057F80011469847002318461037BD4680BD80B52E
:1058080084B000AF78607B68D3F8D4227B68B0326C
:1058180053F82230FB60FB68002B01D1032324E0FE
:105828007B68D3F8D4327A68B0339B0013445B6842
:10583800002B19D0FB6893F80032FF2B14D07B683B
:10584800D3F8D4327A68B0339B0013445B689B6802
:10585800FA6892F80002F968FA6892F80122984703
:10586800FB68FF2283F80022002318461037BD4644
:1058780080BD000080B586B000AF786082211848EE
:1058880000F04FFD78610121154800F04AFD3861AC
:105898008121134800F045FDF8607B69002B02D098
:1058A8007B6910229A713B69002B06D03B69002264
:1058B80042F040021A7100225A71FB68002B06D090
:1058C800FB68002242F040021A7100225A717B687C
:1058D80043221A80024B18461837BD4680BD00BFC8
:1058E800A000002080B586B000AF786082211848FB
:1058F80000F017FD78610121154800F012FD3861AC
:105908008121134800F00DFDF8607B69002B02D05F
:105918007B6910229A713B69002B06D03B690022F3
:105928001A71002242F002025A71FB68002B06D05D
:10593800FB6800221A71002242F002025A717B6849
:1059480043221A80024B18461837BD4680BD00BF57
:10595800A000002080B586B000AF7860822118488A
:1059680000F0DFFC78610121154800F0DAFC3861AD
:105978008121134800F0D5FCF8607B69002B02D028
:105988007B6910229A713B69002B06D03B69002283
:1059980042F040021A7100225A71FB68002B06D0AF
:1059A800FB68002242F040021A7100225A717B689B
:1059B80043221A80024B18461837BD4680BD00BFE7
:1059C800A000002080B483B000AF78607B680A2212
:1059D8001A80034B18460C37BD465DF8047B7047A8
:1059E8005C00002080B483B000AF786039603B6809
:1059F800002B01D1032309E07B68D3F8D4327A68FD
:105A0800B0339B0013443A685A60002318460C3799
:105A1800BD465DF8047B704780B487B000AFF8607E
:105A2800B9607A60FB68D3F8D422FB68B03253F8C7
:105A380022307B617B69002B01D1032308E07B695D
:105A4800BA68C3F808227B697A68C3F81022002371
:105A580018461C37BD465DF8047B704780B485B096
:105A680000AF786039607B68D3F8D4227B68B032A5
:105A780053F82230FB60FB68002B01D1032304E0BC
:105A8800FB683A68C3F80422002318461437BD4659
:105A98005DF8047B7047000080B584B000AF786083
:105AA8007B68D3F8D4227B68B03253F82230BB60CD
:105AB8000123FB73BB68002B01D1032325E0BB68DE
:105AC800D3F81432002B1FD1BB680122C3F814226B
